:100000000C942A000C9447000C9447000C94470071
:100010000C9447000C9447000C9447000C94470044
:100020000C9447000C9447000C9447000C94470034
:100030000C9447000C9447000C9447000C94470024
:100040000C9447000C9447000C9447000C94470014
:100050000C94470011241FBECFE5D4E0DEBFCDBF16
:1000600012E0A0E6B0E0EEEBFAE302C005900D92DC
:10007000A436B107D9F722E0A4E6B2E001C01D9290
:10008000AC36B207E1F70E9410150C945D1D0C947C
:10009000000010BC83E389B988E18AB98EE880BD8D
:1000A0000895AF92BF92CF92DF92EF92FF920F939B
:1000B0001F9340E050E0E6E0F5E0A3E001C0AC01B2
:1000C000E5BB8FE19EE40197F1F700C00000BA01A3
:1000D000665F7F4F99B39E3FE1F589B38E3F29F468
:1000E0006F5F7F4F89B38E3FD9F3CB0168EE73E02A
:1000F0000E94281C262F372F972F990F990B492FD5
:10010000592F692F792F892FA0906402B090650232
:10011000C0906602D0906702E0906802F090690299
:1001200000916A0210916B020E94131D20936402D9
:1001300030936502409366025093670260936802B1
:100140007093690280936A0290936B0281E090E061
:10015000B5C299B39D3FE1F589B38D3F29F46F5F37
:100160007F4F89B38D3FD9F3CB0168EE73E00E94D6
:10017000281C262F372F972F990F990B492F592F6E
:10018000692F792F892FA0906402B0906502C090EA
:100190006602D0906702E0906802F09069020091D8
:1001A0006A0210916B020E94131D20936402309327
:1001B00065024093660250936702609368027093F1
:1001C000690280936A0290936B0284E090E076C2A9
:1001D00089B38B3FE1F589B38B3F29F46F5F7F4F84
:1001E00089B38B3FD9F3CB0168EE73E00E94281CE2
:1001F000262F372F972F990F990B492F592F692F9A
:10020000792F892FA0906402B0906502C090660299
:10021000D0906702E0906802F090690200916A0253
:1002200010916B020E94131D2093640230936502AB
:10023000409366025093670260936802709369026C
:1002400080936A0290936B0287E090E037C289B393
:10025000873FE1F589B3873F29F46F5F7F4F89B30B
:10026000873FD9F3CB0168EE73E00E94281C262F4C
:10027000372F972F990F990B492F592F692F792FC6
:10028000892FA0906402B0906502C0906602D09061
:100290006702E0906802F090690200916A02109192
:1002A0006B020E94131D20936402309365024093F9
:1002B00066025093670260936802709369028093AC
:1002C0006A0290936B028BE090E0F8C1F5BB8FE17E
:1002D0009EE40197F1F700C00000CA01449629B3DB
:1002E0002E3FD1F529B32E3F21F4019629B32E3F9D
:1002F000E1F368EE73E00E94281C262F372F972F1A
:10030000990F990B492F592F692F792F892FA09079
:100310006402B0906502C0906602D0906702E090DF
:100320006802F090690200916A0210916B020E94CB
:10033000131D20936402309365024093660250932C
:100340006702609368027093690280936A029093D7
:100350006B0282E090E0B2C129B32D3FD1F529B301
:100360002D3F21F4019629B32D3FE1F368EE73E0B0
:100370000E94281C262F372F972F990F990B492F52
:10038000592F692F792F892FA0906402B0906502B0
:10039000C0906602D0906702E0906802F090690217
:1003A00000916A0210916B020E94131D2093640257
:1003B000309365024093660250936702609368022F
:1003C0007093690280936A0290936B0285E090E0DB
:1003D00075C129B32B3FD1F529B32B3F21F40196E9
:1003E00029B32B3FE1F368EE73E00E94281C262F0F
:1003F000372F972F990F990B492F592F692F792F45
:10040000892FA0906402B0906502C0906602D090DF
:100410006702E0906802F090690200916A02109110
:100420006B020E94131D2093640230936502409377
:10043000660250936702609368027093690280932A
:100440006A0290936B0288E090E038C129B3273F9D
:10045000D1F529B3273F21F4019629B3273FE1F3D2
:1004600068EE73E00E94281C262F372F972F990FD4
:10047000990B492F592F692F792F892FA09064024A
:10048000B0906502C0906602D0906702E09068026A
:10049000F090690200916A0210916B020E94131D94
:1004A0002093640230936502409366025093670282
:1004B000609368027093690280936A0290936B0262
:1004C0008AE090E0FBC0A5BB8FE19EE40197F1F7C5
:1004D00000C00000CA014E9629B32E3FC1F589B372
:1004E0008E3FE9F3CA014F9668EE73E00E94281C24
:1004F000262F372F972F990F990B492F592F692F97
:10050000792F892FA0906402B0906502C090660296
:10051000D0906702E0906802F090690200916A0250
:1005200010916B020E94131D2093640230936502A8
:100530004093660250936702609368027093690269
:1005400080936A0290936B0283E090E0B7C029B376
:100550002D3FD1F529B32D3F21F4019629B32D3F2D
:10056000E1F368EE73E00E94281C262F372F972FA7
:10057000990F990B492F592F692F792F892FA09007
:100580006402B0906502C0906602D0906702E0906D
:100590006802F090690200916A0210916B020E9459
:1005A000131D2093640230936502409366025093BA
:1005B0006702609368027093690280936A02909365
:1005C0006B0286E090E07AC029B32B3FD1F529B3C6
:1005D0002B3F21F4019629B32B3FE1F368EE73E042
:1005E0000E94281C262F372F972F990F990B492FE0
:1005F000592F692F792F892FA0906402B09065023E
:10060000C0906602D0906702E0906802F0906902A4
:1006100000916A0210916B020E94131D20936402E4
:1006200030936502409366025093670260936802BC
:100630007093690280936A0290936B0289E090E064
:100640003DC029B3273F09F03ACD29B3273F21F414
:10065000019629B3273FE1F368EE73E00E94281C5E
:10066000262F372F972F990F990B492F592F692F25
:10067000792F892FA0906402B0906502C090660225
:10068000D0906702E0906802F090690200916A02DF
:1006900010916B020E94131D209364023093650237
:1006A00040936602509367026093680270936902F8
:1006B00080936A0290936B028CE090E01F910F91FF
:1006C000FF90EF90DF90CF90BF90AF900895282FCC
:1006D000207F2C5F28BBEFECF7E03197F1F700C0EB
:1006E000000028B3245028BB82959295907F9827CC
:1006F000807F98278C5F88BB8FEC97E00197F1F79C
:1007000000C0000088B3845088BB0895282F207F44
:100710002B5F28BBEFECF7E03197F1F700C000004A
:1007200028B3245028BB82959295907F9827807F8C
:1007300098278B5F88BB8FEC97E00197F1F700C09B
:10074000000088B3845088BB0895EF92FF920F9306
:100750001F93CF93DF93EC0184E090E00E94670346
:10076000209729F480E390E00E94860312C00F2EA8
:10077000FAE0EF2EF12CF02DCE01B7010E94281CDB
:10078000062F172FC0960E948603C02FD12F2097C7
:1007900099F786E090E00E946703DF91CF911F9167
:1007A0000F91FF90EF90089581E090E00E94670321
:1007B0008FE097E20197F1F700C00000089582E012
:1007C00090E00E94670388E290E00E9467038CE05B
:1007D00090E00E94670386E090E00E94670308951E
:1007E0002F923F924F925F926F927F928F929F9241
:1007F000AF92BF92CF92DF92EF92FF920F931F932F
:10080000CF93DF93DC018C91882309F45EC0FD0156
:100810003196A12CB12C01C0590195012F5F3F4F9A
:1008200091919111F9CF2FEF89E698E12150804005
:100830009040E1F700C00000EFEFAE1ABE0A1A14B4
:100840001B047CF158C0FFEF2F1A3F0AE801C601D4
:100850006C012FEFC21AD20A0E946703F70181913F
:100860007F018E010F5F1F4F90E00E948603FFE71C
:1008700028E381E0F15020408040E1F700C0000013
:100880002F9781F1A214B30419F000321105DCF2A4
:10089000F30120803180280C391C2A143B0454F0C9
:1008A0002AC02D01212C312C0F2EF4E66F2EF2E000
:1008B0007F2EF02D41017201E20CF31CF0E0CF2FEE
:1008C00020E0D22F80E890E0C3CF8FEF99E6E8E1F7
:1008D00081509040E040E1F700C00000AA24A394BA
:1008E000B12CDFCFA214B30499F20F2EF0ECCF2E6F
:1008F000F02DD12CA8CFDF91CF911F910F91FF90B8
:10090000EF90DF90CF90BF90AF909F908F907F90AF
:100910006F905F904F903F902F900895CF92DF920D
:10092000FF921F93CF93DF930E94D40387E090E060
:100930000E94481DC82F80E890E00E946703CA32D9
:10094000A9F0C7E0D0E0CE010E94481D182F90E02A
:100950000E94860380B3803409F4BFC080B380381E
:1009600009F4BBC021961A3271F702C0C7E0D0E08B
:1009700080EC90E00E946703CE010E94481D8A32FD
:1009800091F0CE010E94481D182F90E00E9486032E
:1009900080B3803409F4A1C080B3803809F49DC0CD
:1009A00021961A3271F7C12CD12C80B38823E9F338
:1009B00080B3823009F057C080B38230E9F31C1451
:1009C0001D040CF050C080E690E00E94F0032297D6
:1009D00001C02197CE010E94481D8A32D1F721978C
:1009E00001C02197CE010E94481D8A32D1F721977C
:1009F00001C02197CE010E94481D8A32D1F721976C
:100A000001C02197CE010E94481D8A32D1F721965C
:100A1000CE010E94481DF82E80E890E00E946703F6
:100A20008AE2F81651F0CE010E94481D182F90E07E
:100A30000E94860321961A32B1F780EC90E00E9462
:100A40006703CE010E94481D8A3251F0CE010E94F8
:100A5000481D182F90E00E94860321961A32B1F7A4
:100A600081E0C81AD10880B3843081F58FEFC81AAD
:100A7000D80A80B38430E9F380E890E00E946703ED
:100A8000CE010E94481D8A3251F0CE010E94481DBD
:100A9000182F90E00E94860321961A32B1F780EC5D
:100AA00090E00E946703CE010E94481D8A3251F0F7
:100AB000CE010E94481D182F90E00E9486032196C7
:100AC0001A32B1F785E890E00E94670380B380385E
:100AD00021F080B3803409F068CFDF91CF911F916E
:100AE000FF90DF90CF9008958F929F92BF92CF9208
:100AF000DF92EF92FF921F93CF93DF9387E090E016
:100B00000E94481DC82F0E94D40380E890E00E94F4
:100B10006703CA3269F0C7E0D0E0CE010E94481DE9
:100B2000182F90E00E94860321961A32B1F702C076
:100B3000C7E0D0E080EC90E00E946703CE010E9405
:100B4000481D8A3251F0CE010E94481D182F90E0B6
:100B50000E94860321961A32B1F7812C912C0F2E18
:100B6000F4E6EF2EF2E0FF2EF02D80B38823E9F3B8
:100B700080B3823009F079C080B38230E9F3181471
:100B800019040CF072C0229701C02197CE010E9477
:100B9000481D8A32D1F7219701C02197CE010E94CA
:100BA000481D8A32D1F7219701C02197CE010E94BA
:100BB000481D8A32D1F7219701C02197CE010E94AA
:100BC000481D8A32D1F72196BC2ECD2ECE010E942F
:100BD000481DD82E80E890E00E9467038AE2D8166C
:100BE00069F18B2D9C2D0E94481D182F90E00E94CA
:100BF0008603209164023091650240916602509113
:100C00006702609168027091690280916A02909116
:100C10006B02A1E00E941C1D2093640230936502C8
:100C20004093660250936702609368027093690272
:100C300080936A0290936B021A3299F680EC90E0EE
:100C40000E9467038B2D9C2D0E94481D8A3251F013
:100C5000CE010E94481D182F90E00E948603219625
:100C60001A32B1F7E1E08E1A910880B3843081F531
:100C7000FFEF8F1A9F0A80B38430E9F380E890E099
:100C80000E946703CE010E94481D8A3251F0CE01B6
:100C90000E94481D182F90E00E94860321961A3268
:100CA000B1F780EC90E00E946703CE010E94481DDE
:100CB0008A3251F0CE010E94481D182F90E00E9408
:100CC000860321961A32B1F785E890E00E94670307
:100CD00080B3803209F05DC080B38032E9F30E94B6
:100CE000D40386E690E00E94F00380B3803209F0DE
:100CF00049C00E94D40380B38032E9F3229701C037
:100D00002197CE010E94481D8A32D1F7219701C058
:100D10002197CE010E94481D8A32D1F7219680E8A2
:100D200090E00E946703CE010E94481D8A3279F04C
:100D300060E2CE010E94501DCE010E94481DD82EB7
:100D400090E00E94860321968AE2D812F1CF80ECCF
:100D500090E00E946703F701808191810E94481D05
:100D60008A32B9F060E2CE010E94501DCE010E948D
:100D7000481DD82E90E00E9486032196FAE2DF12E9
:100D8000F1CF07C080B3803421F080B3803809F000
:100D9000ACCF80B3803421F080B3803809F0E5CE49
:100DA000DF91CF911F91FF90EF90DF90CF90BF9098
:100DB0009F908F9008954F925F926F927F928F9243
:100DC0009F92AF92BF92CF92DF92EF92FF920F93DA
:100DD0001F93CF93DF935C018B01FC0180818823FB
:100DE00009F454C03196C12CD12C01C0690196017F
:100DF0002F5F3F4F81918111F9CFFFEF29E688E105
:100E0000F15020408040E1F700C000009FEFC91A78
:100E1000D90A1C141D043CF146C08C010F5F1F4F02
:100E20000E946703899190E00E948603EFE7F8E350
:100E300021E0E150F0402040E1F700C00000E41460
:100E4000F50441F08FEF481A580AC801E0E24E1647
:100E5000510419F7F30180819181880D991D8C153A
:100E60009D054CF020C080E090E00F2EF4E66F2E40
:100E7000F2E07F2EF02D4C01E501C80FD91F76015D
:100E8000E81AF90AC801412C512CC7CFFFEF29E617
:100E900088E1F15020408040E1F700C00000CC2400
:100EA000C394D12CE0CFDF91CF911F910F91FF9090
:100EB000EF90DF90CF90BF90AF909F908F907F90FA
:100EC0006F905F904F9008953F924F925F926F9214
:100ED0007F928F929F92AF92BF92CF92DF92EF92CA
:100EE000FF920F931F93CF93DF937C010E94D40353
:100EF00060E870E086E790E00E94DB066AE2C701E6
:100F00000E94501D2FEFE21AF20A0E94D4036701DB
:100F1000C0E8D0E00F2EF6E03F2EF02D0F2EF5E0CA
:100F20004F2EF02D0F2EF3E05F2EF02D80B3803288
:100F300009F461C435BA89B38E3F09F074C0CE019B
:100F40000E94670389B38E3FE9F38EE290E00E942E
:100F500086038C2C9D2C6EE2C6010E94501D8FEFE3
:100F600091EE24E0815090402040E1F700C0000065
:100F700005EF11E08FEC97E00197F1F700C000005A
:100F800089B38E3F09F043C0CE010E94670389B345
:100F90008E3FE9F38CE290E00E9486036CE2882D9C
:100FA000992D0E94501D9FEF20E782E09150204034
:100FB0008040E1F700C000000F2EF5EFAF2EBB24FC
:100FC000B394F02D8FEC97E00197F1F700C000008B
:100FD00089B38E3FC1F4CE010E94670389B38E3F6F
:100FE000E9F381E290E00E94860361E2882D992D69
:100FF0000E94501D9FEF20E782E0915020408040EA
:10100000E1F700C0000091E0A91AB108D9F601503B
:10101000110909F0AFCF21962FEFC21AD20A8FEF34
:10102000E81AF80A4AC189B38D3F09F058C0CE01C9
:101030000E94670389B38D3FE9F387E690E00E9441
:1010400086038C2C9D2C67E6C6010E94501D05EF7F
:1010500011E08FEC97E00197F1F700C0000089B331
:101060008D3F89F5CE010E94670389B38D3FE9F377
:1010700088E690E00E94860368E6882D992D0E94FC
:10108000501D0F2EF5EFAF2EBB24B394F02D8FEC37
:1010900097E00197F1F700C0000089B38D3F79F424
:1010A000CE010E94670389B38D3FE9F389E690E0A2
:1010B0000E94860369E6882D992D0E94501D91E0BB
:1010C000A91AB10821F70150110909F0C2CF2196E0
:1010D0002FEFC21AD20A8FEFE81AF80AEEC089B3CE
:1010E0008B3F09F07CC0CE010E94670389B38B3F20
:1010F000E9F380E790E00E9486036C2C7D2C60E78A
:10110000C6010E94501D0F2EF5EFAF2EBB24B394E5
:10111000F02D8FEC97E00197F1F700C0000089B344
:101120008B3F09F04FC0CE010E94670389B38B3F0C
:10113000E9F381E790E00E94860361E7862D972D11
:101140000E94501D05EF11E08FEC97E00197F1F739
:1011500000C0000089B38B3F89F5CE010E94670370
:1011600089B38B3FE9F382E790E00E94860362E750
:10117000862D972D0E94501D0F2EF5EF8F2E99244E
:101180009394F02D8FEC97E00197F1F700C00000E9
:1011900089B38B3F79F4CE010E94670389B38B3FFB
:1011A000E9F383E790E00E94860363E7862D972D9D
:1011B0000E94501D91E0891A910821F701501109F0
:1011C00009F0C2CF21E0A21AB10809F0A2CF2196FE
:1011D0008FEFC81AD80A9FEFE91AF90A6EC089B3CF
:1011E000873F09F06AC0CE010E94670386E290E063
:1011F0000E9486038C2C9D2C66E2C6010E94501D25
:101200002FEF80E792E0215080409040E1F700C04E
:10121000000005EF11E08FEC97E00197F1F700C0B7
:10122000000089B3873F09F03DC0CE010E946703EB
:1012300083E290E00E94860363E2882D992D0E944C
:10124000501D9FEF20E782E0915020408040E1F761
:1012500000C000000F2EF5EFAF2EBB24B394F02D8D
:101260008FEC97E00197F1F700C0000089B3873F4A
:10127000A9F4CE010E94670380E490E00E948603F7
:1012800060E4882D992D0E94501D9FEF20E782E099
:10129000915020408040E1F700C0000091E0A91A81
:1012A000B108F1F60150110909F0B5CF21962FEFE1
:1012B000C21AD20A8FEFE81AF80A80B38034C1F458
:1012C00080B38034E9F3CE010E94670389B38E3F77
:1012D000E9F380E290E00E94860360E2C6010E948A
:1012E000501D219791E0C91AD10821E0E21AF108B6
:1012F00045BA8FE19EE40197F1F700C0000089B381
:101300008E3F09F058C0CE010E94670389B38E3F1B
:10131000E9F381E690E00E9486038C2C9D2C61E627
:10132000C6010E94501D05EF11E08FEC97E0019778
:10133000F1F700C0000089B38E3F89F5CE010E940D
:10134000670389B38E3FE9F382E690E00E9486034B
:1013500062E6882D992D0E94501D0F2EF5EFAF2EBD
:10136000BB24B394F02D8FEC97E00197F1F700C008
:10137000000089B38E3F79F4CE010E94670389B3E0
:101380008E3FE9F383E690E00E94860363E6882DB2
:10139000992D0E94501D91E0A91AB10821F7015022
:1013A000110909F0C2CF21962FEFC21AD20A8FEF8E
:1013B000E81AF80AD0C089B38D3F09F058C0CE01B1
:1013C0000E94670389B38D3FE9F38AE690E00E94AB
:1013D00086038C2C9D2C6AE6C6010E94501D05EFE9
:1013E00011E08FEC97E00197F1F700C0000089B39E
:1013F0008D3F89F5CE010E94670389B38D3FE9F3E4
:101400008BE690E00E9486036BE6882D992D0E9462
:10141000501D0F2EF5EFAF2EBB24B394F02D8FECA3
:1014200097E00197F1F700C0000089B38D3F79F490
:10143000CE010E94670389B38D3FE9F38CE690E00B
:101440000E9486036CE6882D992D0E94501D91E024
:10145000A91AB10821F70150110909F0C2CF21964C
:101460002FEFC21AD20A8FEFE81AF80A74C089B3B4
:101470008B3F09F058C0CE010E94670389B38B3FB0
:10148000E9F384E790E00E9486038C2C9D2C64E7AE
:10149000C6010E94501D05EF11E08FEC97E0019707
:1014A000F1F700C0000089B38B3F89F5CE010E949F
:1014B000670389B38B3FE9F385E790E00E948603D9
:1014C00065E7882D992D0E94501D0F2EF5EFAF2E48
:1014D000BB24B394F02D8FEC97E00197F1F700C097
:1014E000000089B38B3F79F4CE010E94670389B372
:1014F0008B3FE9F386E790E00E94860366E7882D3C
:10150000992D0E94501D91E0A91AB10821F70150B0
:10151000110909F0C2CF21962FEFC21AD20A8FEF1C
:10152000E81AF80A18C089B3873FA9F489B3873F3E
:10153000E9F3CE010E94670380E290E00E948603F7
:1015400060E2C6010E94501D21969FEFC91AD90A78
:101550002FEFE21AF20A55BA8FE19EE40197F1F7F4
:1015600000C0000089B38E3F09F058C0CE010E9430
:10157000670389B38E3FE9F384E690E00E94860317
:101580008C2C9D2C64E6C6010E94501D05EF11E0D5
:101590008FEC97E00197F1F700C0000089B38E3F10
:1015A00089F5CE010E94670389B38E3FE9F385E692
:1015B00090E00E94860365E6882D992D0E94501DBB
:1015C0000F2EF5EFAF2EBB24B394F02D8FEC97E0E8
:1015D0000197F1F700C0000089B38E3F79F4CE0186
:1015E0000E94670389B38E3FE9F386E690E00E948C
:1015F000860366E6882D992D0E94501D91E0A91A58
:10160000B10821F70150110909F0C2CF21962FEF3F
:10161000C21AD20A8FEFE81AF80AE1C089B38D3FE7
:1016200009F058C0CE010E94670389B38D3FE9F3EA
:101630008DE690E00E9486038C2C9D2C6DE6C60101
:101640000E94501D05EF11E08FEC97E00197F1F734
:1016500000C0000089B38D3F89F5CE010E94670369
:1016600089B38D3FE9F38EE690E00E9486036EE633
:10167000882D992D0E94501D0F2EF5EFAF2EBB2403
:10168000B394F02D8FEC97E00197F1F700C00000C4
:1016900089B38D3F79F4CE010E94670389B38D3FF2
:1016A000E9F38FE690E00E9486036FE6882D992D7E
:1016B0000E94501D91E0A91AB10821F701501109AB
:1016C00009F0C2CF21962FEFC21AD20A8FEFE81A83
:1016D000F80A85C089B38B3F09F07CC0CE010E9417
:1016E000670389B38B3FE9F387E790E00E948603A5
:1016F0006C2C7D2C67E7C6010E94501D0F2EF5EF64
:10170000AF2EBB24B394F02D8FEC97E00197F1F747
:1017100000C0000089B38B3F09F04FC0CE010E948A
:10172000670389B38B3FE9F388E790E00E94860363
:1017300068E7862D972D0E94501D05EF11E08FEC74
:1017400097E00197F1F700C0000089B38B3F89F55E
:10175000CE010E94670389B38B3FE9F389E790E0EC
:101760000E94860369E7862D972D0E94501D0F2E3B
:10177000F5EF8F2E99249394F02D8FEC97E001973D
:10178000F1F700C0000089B38B3F79F4CE010E94CD
:10179000670389B38B3FE9F38AE790E00E948603F1
:1017A0006AE7862D972D0E94501D91E0891A9108B5
:1017B00021F70150110909F0C2CF21E0A21AB108A6
:1017C00009F0A2CF21968FEFC81AD80A9FEFE91A25
:1017D000F90A05C089B3873F11F4C0E8D0E080B3AF
:1017E000803249F080B3803409F486C180B38038F8
:1017F00009F09CCB81C16AE2C7010E94501D2FEF06
:10180000E21AF20A60E870E081E890E00E94DB06EC
:101810008FEF99E628E1815090402040E1F700C029
:1018200000008701C0E0D0E00F2EF6E0BF2EF02DC3
:101830000F2EF5E0CF2EF02D0F2EF3E0DF2EF02D42
:10184000B5BA8FE19EE40197F1F700C0000089B3BB
:101850008E3FB9F489B38E3FE9F3CE0180589F4F94
:101860000E94670381E090E00E94A50361E3C80144
:101870000E94501D21960F5F1F4F9FEFE91AF90A32
:101880004DC089B38D3FB9F489B38D3FE9F3CE01E3
:1018900080589F4F0E94670384E090E00E94A50358
:1018A00064E3C8010E94501D21960F5F1F4F2FEF68
:1018B000E21AF20A33C089B38B3FB9F489B38B3F84
:1018C000E9F3CE0180589F4F0E94670387E090E0C4
:1018D0000E94A50367E3C8010E94501D21960F5F77
:1018E0001F4F8FEFE81AF80A19C089B3873FB1F488
:1018F00089B3873FE9F3CE0180589F4F0E94670369
:101900008BE090E00E94A50361E3C8010E94501D96
:1019100021960F5F1F4F9FEFE91AF90AC5BA8FE1B1
:101920009EE40197F1F700C0000089B38E3FB9F43F
:1019300089B38E3FE9F3CE0180589F4F0E94670321
:1019400082E090E00E94A50362E3C8010E94501D5E
:1019500021960F5F1F4F9FEFE91AF90A4DC089B317
:101960008D3FB9F489B38D3FE9F3CE0180589F4F85
:101970000E94670385E090E00E94A50365E3C8012B
:101980000E94501D21960F5F1F4F2FEFE21AF20A9F
:1019900033C089B38B3FB9F489B38B3FE9F3CE01F0
:1019A00080589F4F0E94670388E090E00E94A50343
:1019B00068E3C8010E94501D21960F5F1F4F8FEFF3
:1019C000E81AF80A19C089B3873FB1F489B3873F91
:1019D000E9F3CE0180589F4F0E94670380E090E0BA
:1019E0000E94A50360E3C8010E94501D21960F5F6D
:1019F0001F4F9FEFE91AF90AD5BA8FE19EE40197CC
:101A0000F1F700C0000089B38E3FB9F489B38E3F6F
:101A1000E9F3CE0180589F4F0E94670383E090E076
:101A20000E94A50363E3C8010E94501D21960F5F29
:101A30001F4F9FEFE91AF90A4DC089B38D3FB9F4E2
:101A400089B38D3FE9F3CE0180589F4F0E94670311
:101A500086E090E00E94A50366E3C8010E94501D45
:101A600021960F5F1F4F2FEFE21AF20A33C089B39E
:101A70008B3FB9F489B38B3FE9F3CE0180589F4F78
:101A80000E94670389E090E00E94A50369E3C80112
:101A90000E94501D21960F5F1F4F8FEFE81AF80A22
:101AA00019C089B3873FB1F489B3873FE9F3CE0109
:101AB00080589F4F0E9467038CE090E00E94A5032E
:101AC00062E3C8010E94501D21960F5F1F4F9FEFD8
:101AD000E91AF90A80B3803241F080B3803461F0B2
:101AE00080B3803809F0ACCE07C08EE890E00E9449
:101AF000F0038E2D9F2D00C0DF91CF911F910F918C
:101B0000FF90EF90DF90CF90BF90AF909F908F901D
:101B10007F906F905F904F903F90089580E590E0A8
:101B20000E94670380E090E00E9486038CE090E0D2
:101B30000E9486038CE090E00E94860382E190E0A0
:101B40000E94860382E190E00E94860381E290E099
:101B50000E94860381E290E00E948603089580E45B
:101B600090E00E94670380E090E00E94860380E09E
:101B700090E00E94860380E090E00E94860380E06F
:101B800090E00E9486038CE090E00E94860382E150
:101B900090E00E94860381E290E00E94860308950F
:101BA00088E490E00E9467038EE090E00E94860344
:101BB00086E090E00E94860384E090E00E94860325
:101BC0008EE090E00E94860385E190E00E9486030B
:101BD00084E090E00E9486038AE090E00E94860301
:101BE0008AE090E00E94860308956F927F928F9220
:101BF0009F92AF92BF92CF92DF92EF92FF920F939C
:101C00001F93CF93DF9315BA0E94D4032FEF39E6C9
:101C100048E1215030404040E1F700C000008CE92D
:101C200090E00E94F0038FEF98E02DE38150904008
:101C30002040E1F700C000000E94D40388EA90E051
:101C40000E94F0033FEF48E08DE331504040804078
:101C5000E1F700C000008EEA90E00E94F0039FEFE1
:101C600028E03DE3915020403040E1F700C0000003
:101C70000E94D4038AEC90E00E94F0034FEF88E0CA
:101C80009DE3415080409040E1F700C000000E9479
:101C9000D4038DED90E00E94F0032FEF38E04DE388
:101CA000215030404040E1F700C000000E94D403C2
:101CB000CC24C394D12C612C712CC1E0D0E00F2E28
:101CC000FFE08F2E912CF02D0CC0CC24C394D12C8E
:101CD000612C712CC1E0D0E00F2EFFE08F2E912CF3
:101CE000F02D0F2EFFECEF2EF12CF02D87010F5B66
:101CF0001109C017D10709F4E5C2C801B4010E9457
:101D0000281C5C01892B79F00E94AF0DC7010E944D
:101D1000670380E090E00E9486038FEC97E00197D4
:101D2000F1F700C0000089B38D3F71F5E6012196FF
:101D3000C031D10531F488EF90E00E94F003C1E09A
:101D4000D0E00E94D00DCE0180549F4F0E946703C7
:101D500081E090E00E9486038FEC97E00197F1F715
:101D600000C000000E94AF0DCE0181549F4F0E9421
:101D7000670380E090E00E9486038FEC97E0019774
:101D8000F1F700C000006E0189B38B3F71F5E601E9
:101D90002196C031D10531F488EF90E00E94F00324
:101DA000C1E0D0E00E94D00DCE018F539F4F0E9422
:101DB000670381E090E00E9486038FEC97E0019733
:101DC000F1F700C000000E94AF0DCE0181549F4F7B
:101DD0000E94670380E090E00E9486038FEC97E00A
:101DE0000197F1F700C000006E0189B38E3F71F5D5
:101DF000E6012196C031D10531F488EF90E00E94D0
:101E0000F003C1E0D0E00E94D00DCE018F539F4F70
:101E10000E94670381E090E00E9486038FEC97E0C8
:101E20000197F1F700C000000E94AF0DCE01815470
:101E30009F4F0E94670380E090E00E9486038FEC32
:101E400097E00197F1F700C000006E01AB2809F0A0
:101E5000BDC0C017D107C1F40E94D40383E091E054
:101E60000E94F0039FEF28E03DE391502040304076
:101E7000E1F700C000008DE091E00E94F003E8016E
:101E800066246394712C57C10E948E0DC7010E9475
:101E9000670382E090E00E9486038FE19EE4019751
:101EA000F1F700C0000089B38D3F71F5E60121967E
:101EB000C031D10531F488EF90E00E94F003C1E019
:101EC000D0E00E94D00DCE0180549F4F0E94670346
:101ED00081E090E00E9486038FEC97E00197F1F794
:101EE00000C000000E94AF0DCE0181549F4F0E94A0
:101EF000670380E090E00E9486038FEC97E00197F3
:101F0000F1F700C000006E0189B38B3F71F5E60167
:101F10002196C031D10531F488EF90E00E94F003A2
:101F2000C1E0D0E00E94D00DCE018F539F4F0E94A0
:101F3000670381E090E00E9486038FEC97E00197B1
:101F4000F1F700C000000E94AF0DCE0181549F4FF9
:101F50000E94670380E090E00E9486038FEC97E088
:101F60000197F1F700C000006E0189B38E3F71F553
:101F7000E6012196C031D10531F488EF90E00E944E
:101F8000F003C1E0D0E00E94D00DCE018F539F4FEF
:101F90000E94670381E090E00E9486038FEC97E047
:101FA0000197F1F700C000000E94AF0DCE018154EF
:101FB0009F4F0E94670380E090E00E9486038FECB1
:101FC00097E00197F1F700C000006E01C017D1073C
:101FD00009F0A9C08E010E94D00DC80180549F4F06
:101FE0000E94670381E090E00E9486038FEC97E0F7
:101FF0000197F1F700C0000089B38D3F79F58601A4
:102000000F5F1F4F0031110531F488EF90E00E94FF
:10201000F00301E010E00E94D00DC80180549F4FF2
:102020000E94670381E090E00E9486038FEC97E0B6
:102030000197F1F700C000000E94AF0DC801815464
:102040009F4F0E94670380E090E00E9486038FEC20
:1020500097E00197F1F700C00000680189B38B3F5A
:1020600079F586010F5F1F4F0031110531F488EFBC
:1020700090E00E94F00301E010E00E94D00DC80142
:102080008F539F4F0E94670381E090E00E94860378
:102090008FEC97E00197F1F700C000000E94AF0DB0
:1020A000C80181549F4F0E94670380E090E00E9426
:1020B00086038FEC97E00197F1F700C000006801FC
:1020C00089B38E3F79F5E6012196C031D10531F40F
:1020D00088EF90E00E94F003C1E0D0E00E94D00DB4
:1020E000CE018F539F4F0E94670381E090E00E94D2
:1020F00086038FEC97E00197F1F700C000000E9483
:10210000AF0DCE0181549F4F0E94670380E090E0A5
:102110000E9486038FEC97E00197F1F700C0000062
:102120006E0101C0E80191E0E91AF1082FEBE21617
:10213000F10409F0DBCD31E06316710459F480B38A
:102140008823E9F380B3813009F4BFCD80B38830B0
:1021500009F4C0C0C40108965AF04FEF20E732E0FE
:10216000415020403040E1F700C000000197A8F73F
:102170008FEF90E722E0815090402040E1F700C0CF
:10218000000031E0831A910841E08416910429F49B
:102190000F2EFFE08F2E912CF02D89B38D3F71F51E
:1021A000E6012196C031D10531F488EF90E00E941C
:1021B000F003C1E0D0E00E94D00DCE0180549F4FCB
:1021C0000E94670381E090E00E9486038FEC97E015
:1021D0000197F1F700C000000E94AF0DCE018154BD
:1021E0009F4F0E94670380E090E00E9486038FEC7F
:1021F00097E00197F1F700C000006E0189B38B3FB3
:1022000071F5E6012196C031D10531F488EF90E0F7
:102210000E94F003C1E0D0E00E94D00DCE018F53A8
:102220009F4F0E94670381E090E00E9486038FEC3D
:1022300097E00197F1F700C000000E94AF0DCE01BA
:1022400081549F4F0E94670380E090E00E948603C4
:102250008FEC97E00197F1F700C000006E0189B3A1
:102260008E3F09F03ECDE6012196C031D10531F413
:1022700088EF90E00E94F003C1E0D0E00E94D00D12
:10228000CE018F539F4F0E94670381E090E00E9430
:1022900086038FEC97E00197F1F700C000000E94E1
:1022A000AF0DCE0181549F4F0E94670380E090E004
:1022B0000E9486038FEC97E00197F1F700C00000C1
:1022C0006E010FCDC801B4010E94281C892B09F0B2
:1022D00082CEC2CDDF91CF911F910F91FF90EF90F1
:1022E000DF90CF90BF90AF909F908F907F906F9036
:1022F00008958AE183BF8BE38CBF2FEF39E648E175
:10230000215030404040E1F700C0000094E39CBF02
:102310005FEF69E678E1515060407040E1F700C03E
:1023200000002EE22CBFAFEFE9E6F8E1A150E0405B
:10233000F040E1F700C000003AE23CBF4FEF59E641
:1023400068E1415050406040E1F700C0000046E2C3
:102350004CBF7FEFA9E6E8E17150A040E040E1F713
:1023600000C0000052E25CBFFFEF69E678E1F15087
:1023700060407040E1F700C000006EE16CBFAFEF5D
:10238000E9E6F8E1A150E040F040E1F700C00000CC
:102390007CE17CBFAFEFE9E6F8E1A150E040F0401E
:1023A000E1F700C000001CBEAFEFE0E7F2E0A15093
:1023B000E040F040E1F700C000007CBF7FEFA9E6FD
:1023C000E8E17150A040E040E1F700C000006CBFC0
:1023D000FFEF69E678E1F15060407040E1F700C03E
:1023E00000005CBFAFEFE9E6F8E1A150E040F0404B
:1023F000E1F700C000004CBF4FEF59E668E14150E3
:1024000050406040E1F700C000003CBF7FEFA0E714
:10241000E2E07150A040E040E1F700C000002CBFB6
:10242000FFEF20E732E0F15020403040E1F700C0FC
:1024300000009CBF4FEF50E762E0415050406040C9
:10244000E1F700C000008CBF7FEF80E792E07150A1
:1024500080409040E1F700C000001CBEAFEFE0E715
:10246000F2E0A150E040F040E1F700C0000080E65B
:1024700090E00E94F00308958AE183BF8BE38CBF54
:102480002FEF30E742E0215030404040E1F700C0FC
:10249000000084E38CBF8FEF90E722E081509040F2
:1024A0002040E1F700C000009AE29CBF3FE748E30C
:1024B00081E0315040408040E1F700C0000086E2FA
:1024C0008CBF2FE738E341E0215030404040E1F736
:1024D00000C000009CBF2FE738E341E021503040AE
:1024E0004040E1F700C000008CBF2FEF30E742E032
:1024F000215030404040E1F700C000009CBF9FEFFA
:1025000020E732E0915020403040E1F700C0000069
:102510008CBF4FEF80E792E0415080409040E1F760
:1025200000C000009EE19CBF2FE738E341E021504E
:1025300030404040E1F700C000008CE18CBF2FE745
:1025400038E341E0215030404040E1F700C0000056
:102550009CBF9FE728E331E0915020403040E1F7F5
:1025600000C000008CBF4FEF80E792E041508040F8
:102570009040E1F700C0000008958AE183BF2BE39B
:102580002CBF3FE748E351E0315040405040E1F775
:1025900000C000008AE28CBF9FE7E8E3F1E09150C1
:1025A000E040F040E1F700C000001CBEEFE1FEE4B7
:1025B0003197F1F700C000008CBFFFEF30E742E039
:1025C000F15030404040E1F700C000001CBEEFE198
:1025D000FEE43197F1F700C000008CBFFFEF30E759
:1025E00042E0F15030404040E1F700C0000096E288
:1025F0009CBF5FEFE0E7F2E05150E040F040E1F7D0
:1026000000C000008CBF3FEF40E752E03150404037
:102610005040E1F700C000002CBFEFE7F8E331E0E5
:10262000E150F0403040E1F700C000008CBF4FE7C0
:1026300058E3E1E041505040E040E1F700C00000C5
:102640001CBEEFE1FEE43197F1F700C000008CBF43
:10265000FFEF30E742E0F15030404040E1F700C08A
:1026600000009CBF5FEFE0E7F2E05150E040F04037
:10267000E1F700C000008CBF3FEF40E752E031506F
:1026800040405040E1F700C000002CBFEFE7F8E306
:1026900021E0E150F0402040E1F700C000008CBF95
:1026A0003FE748E351E0315040405040E1F700C07F
:1026B00000001CBEEFE1FEE43197F1F700C000001E
:1026C0008CBFFFEF20E732E0F15020403040E1F7CF
:1026D00000C000001CBEEFE1FEE43197F1F700C03E
:1026E00000008CBFFFEF20E732E0F1502040304087
:1026F000E1F700C000009CBF4FEF50E792E041506F
:1027000050409040E1F700C000008CBFEFEFF0E7D1
:1027100022E0E150F0402040E1F700C000000895C1
:10272000AF92BF92CF92DF92EF92FF920F931F93DF
:10273000CF93DF930E94D403E12CF12CC0E0D0E0D2
:1027400001E010E0CC24C394D12CA12CB12C60E882
:1027500070E080E391E00E94DB0660EC70E08CE3C7
:1027600091E00E94DB0680B38823E9F380B38230D6
:1027700099F40230110584F080B38230E9F30150FE
:1027800011090E94D40385E890E00E946703C80104
:102790000E94A503CC2DDD2D80B3843099F480B345
:1027A0008430E9F30330110514F40F5F1F4F0E94CA
:1027B000D40385E890E00E946703C8010E94A50346
:1027C000CC2DDD2D80B3803221F4EC2CFD2CCC2DD2
:1027D000DD2D80B3803409F488C080B3803809F4DB
:1027E00087C0C130D10509F0B2CF0130110599F48D
:1027F000E114F10409F082C060E870E089E491E03E
:102800000E94DB0660EC70E082E591E00E94DB064E
:10281000CA2DDB2D73C00230110509F074C0E1141C
:10282000F10471F560E870E082E591E00E94DB065A
:1028300060EC70E08FE591E00E94DB06CA2DDB2D95
:102840001FC0E114F10491F560E870E08FE591E0BC
:102850000E94DB06CA2DDB2D29C081E0E816F104B9
:10286000D1F50E94D40360E870E089E491E00E9411
:10287000DB060E947911EA2CFB2CCA2DDB2D2BC024
:102880000230110599F481E0E816F10421F50E9467
:10289000D40360E870E082E591E00E94DB060E94CC
:1028A0003C12EA2CFB2CCA2DDB2D15C00330110580
:1028B00091F481E0E816F10471F40E94D40360E819
:1028C00070E08FE591E00E94DB060E94BD12EA2CC9
:1028D000FB2CCA2DDB2D80B3803469F080B38038A7
:1028E00009F035CF81E090E013C080E090E010C0A7
:1028F00081E090E00DC080E090E00AC00130110559
:1029000009F4ABCFBDCF0330110509F49ACFB8CF8E
:10291000DF91CF911F910F91FF90EF90DF90CF90BB
:10292000BF90AF9008950F931F93CF93DF9380E8EC
:1029300090E00E9467038EE691E00E94F00380B36E
:10294000813009F066C000E010E00E945100EC0107
:1029500085E890E00E9467030E94D403CE010E94A4
:10296000A5032FEF89E698E1215080409040E1F7E0
:1029700000C00000C8010E94481D90E0E0968C173E
:102980009D0709F040C003301105B1F583EA91E0DD
:102990000E94F0032FEF89E698E12150804090409B
:1029A000E1F700C000000E94D4038AE891E00E9491
:1029B000F003C0E0D0E00E945100182F092F85E8F5
:1029C00090E00E9467030E94D403812F902F0E9401
:1029D000A5032FEF89E698E1215080409040E1F770
:1029E00000C0000060E3610FCE010E94501D2196DF
:1029F000C430D10501F70DC00F5F1F4F0430110522
:102A000009F0A3CF06C00E94D40381EA91E00E949E
:102A1000F0030E94D403DF91CF911F910F9108958D
:102A2000CF93DF93CDB7DEB7C455D1090FB6F89475
:102A3000DEBF0FBECDBF1ABA8FEF8BBB11BA87BBFB
:102A40008FEE84BB0E9449002FEF80E792E0215077
:102A500080409040E1F700C000000E94DF03EFEFEC
:102A6000F0E722E0E150F0402040E1F700C0000034
:102A700081E3898382E38A8383E38B8384E38C838A
:102A80008E010F5F1F4F812C912CF80161918F01F6
:102A9000C4010E94501DFFEF8F1A9F0A24E0821686
:102AA000910499F78FEF99E6E8E181509040E0407A
:102AB000E1F700C0000087E0E6E3F2E0DE011596F2
:102AC00001900D928A95E1F78BE0EDE3F2E0DE01F3
:102AD0001C9601900D928A95E1F786E0E8E4F2E019
:102AE000DE01579601900D928A95E1F78BE0EEE4B6
:102AF000F2E0DE015D9601900D928A95E1F784E4A3
:102B000091E699A788A784E690E09BA78AA78BE027
:102B1000E9E5F2E0DE019C9601900D928A95E1F7DD
:102B20006AE286E090E00E94501D6D81662389F084
:102B30003E01F6E06F0E711C07E010E0C8010E9434
:102B4000501D0F5F1F4FF30161913F016111F6CFDF
:102B500002C007E010E06AE2C8010E94501D48016F
:102B6000FFEF8F1A9F0A6C85662379F03E012DE0F6
:102B7000620E711CC4010E94501D8FEF881A980AC2
:102B8000F30161913F016111F5CF6AE2C4010E9436
:102B9000501DFFEF8F1A9F0A6F89662379F03E015F
:102BA00028E1620E711CC4010E94501D8FEF881A2B
:102BB000980AF30161913F016111F5CF6AE2C40106
:102BC0000E94501DFFEF8F1A9F0A6D8D662379F0CA
:102BD0003E012EE1620E711CC4010E94501D8FEF58
:102BE000881A980AF30161913F016111F5CF6AE2F9
:102BF000C4010E94501DFFEF8F1A9F0A68A566232B
:102C000079F03E0129E2620E711CC4010E94501D40
:102C10008FEF881A980AF30161913F016111F5CF96
:102C20006AE2C4010E94501DFFEF8F1A9F0A6CA533
:102C3000662379F03E012DE2620E711CC4010E94F0
:102C4000501D8FEF881A980AF30161913F016111BD
:102C5000F5CF6AE2C4010E94501DC401019663963B
:102C60009FAF8EAF63979FEFE9E6F8E19150E040A8
:102C7000F040E1F700C000000E94D403212C312C69
:102C800044244394512C612C712C2F961FAE1EAE00
:102C90002F9721E060962FAF609761961FAE6197E6
:102CA00064962FAF649780E065968FAF65972FAFDE
:102CB00021968FAF21972C961FAE2C972D961FAE85
:102CC0002D97109264021092650210926602109283
:102CD0006702109268021092690210926A021092C2
:102CE0006B021FAA18AE19AE1AAE1BAE1CAE812C19
:102CF000912C23961FAE1EAE23978DAE9EAE64968A
:102D00009FAC649765968FAC659729C06894AA2498
:102D1000A4F80F2EFEE0BF2EF02DC12CD12CE12CFB
:102D2000F12C00E010E02FA938AD49AD5AAD6BADE4
:102D30007CAD8DAD9EAD0E943C1CA0E00E94281D84
:102D400051F02396EEADFFAD239731962396FFAF5A
:102D5000EEAF239704C023961FAE1EAE23970F2E0F
:102D6000FCE3AF2EF02DB12CC12CD12CE12CF12C99
:102D700000E010E02FA938AD49AD5AAD6BAD7CAD88
:102D80008DAD9EAD0E943C1C24962FAF24972596B6
:102D90003FAF259726964FAF269727965FAF279789
:102DA00028966FAF289729967FAF29972A968FAFDD
:102DB0002A972B969FAF2B9784E890E00E94670399
:102DC0000F2EF0EAAF2EF02D0F2EFCE8BF2EF02DC7
:102DD0002FA938AD49AD5AAD6BAD7CAD8DAD9EAD73
:102DE0000E943E1C822F932F0E94A50385E890E04D
:102DF0000E9467036894AA24A4F80F2EFEE0BF2E59
:102E0000F02D2FA938AD49AD5AAD6BAD7CAD8DAD70
:102E10009EAD0E943E1C0F2EFAE0AF2EF02DB12C7D
:102E20000E943C1C822F932F0E94A50386E890E00D
:102E30000E9467038AE390E00E94860387E890E09F
:102E40000E94670323968EAD9FAD239768E572E0DD
:102E50000E94281CCB010E94A50388E890E00E94F4
:102E6000670323968EAD9FAD23976CE370E00E94BD
:102E7000281CCB016AE070E00E94281C0E94A50378
:102E800089E890E00E9467038AE390E00E9486034D
:102E90008AE890E00E94670324962FAD2497259638
:102EA0003FAD259726964FAD269727965FAD27977E
:102EB00028966FAD289729967FAD29972A968FADD2
:102EC0002A972B969FAD2B970E943E1C822F932F03
:102ED0000E94A5038BE890E00E94670324962FAD23
:102EE000249725963FAD259726964FAD2697279692
:102EF0005FAD279728966FAD289729967FAD2997C4
:102F00002A968FAD2A972B969FAD2B970E943C1C3B
:102F1000822F932F0E94A503FFEF29E688E1F1504D
:102F200020408040E1F700C000000E94D40380B33D
:102F3000813009F01CC400E010E0F92CE82C0E945C
:102F400051004C0185E890E00E946703C4010E9493
:102F5000A5039FEFE0E7F2E09150E040F040E1F799
:102F600000C00000C8010E94481D9401205D3F4F31
:102F700090E02817390709F089C00330110509F0DE
:102F800059C09F2C8E2C83EA91E00E94F0032FEF12
:102F900083ED90E3215080409040E1F700C00000B5
:102FA000209164023091650240916602509167025F
:102FB000609168027091690280916A0290916B023F
:102FC000A1E00E941C1D209364023093650240938F
:102FD000660250936702609368027093690280935F
:102FE0006A0290936B02EFEFFDE329E4E150F040B9
:102FF0002040E1F700C000000E94D40385E890E083
:103000000E9467030E94D40381E090E00E94A50320
:103010008FEF93EDE0E381509040E040E1F700C096
:10302000000067C02F968EAD9FAD2F97019709F4D2
:1030300060C09DC320916402309165024091660298
:1030400050916702609168027091690280916A02F2
:1030500090916B02A1E00E941C1D209364023093AA
:103060006502409366025093670260936802709312
:10307000690280936A0290936B020F5F1F4F0430C6
:10308000110509F05CCF9F2C8E2CCCCF9F2C8E2C61
:1030900081EA91E00E94F0039FEFE9E6F8E19150A8
:1030A000E040F040E1F700C0000020916402309160
:1030B00065024091660250916702609168027091CA
:1030C000690280916A0290916B02A1E00E941C1D2E
:1030D0002093640230936502409366025093670226
:1030E000609368027093690280936A0290936B0206
:1030F00099CF15BA80B3811103C083B38031D1F762
:1031000020916402309165024091660250916702FD
:10311000609168027091690280916A0290916B02DD
:10312000A1E00E941C1D209364023093650240932D
:1031300066025093670260936802709369028093FD
:103140006A0290936B0280B3813009F0A2C280B30F
:103150008130E9F30E94D40360E870E084EB91E0F1
:103160000E94DB0660EC70E08AEB91E00E94DB06D7
:1031700080B38823E9F380B38230A9F422E04216B9
:1031800051048CF080B38230E9F381E0481A510891
:103190000E94D40385E890E00E946703C2010E9468
:1031A000A503292C382C80B38430A9F480B3843053
:1031B000E9F396E0491651041CF4EFEF4E1A5E0A4B
:1031C0000E94D40385E890E00E946703C2010E9438
:1031D000A503292C382C80B3803209F404C380B3B2
:1031E000803409F456C2F1E02F16310409F621E0CB
:1031F0004216510499F46114710409F0FBC260E8AD
:1032000070E084EB91E00E94DB0660EC70E08AEBFA
:1032100091E00E94DB06212C312C30C082E0481660
:10322000510499F46114710409F0E7C260E870E098
:103230008AEB91E00E94DB0660EC70E080EC91E0AC
:103240000E94DB06212C312C2FC093E0491651043B
:1032500099F46114710409F0D3C260E870E080EC65
:1032600091E00E94DB0660EC70E080ED91E00E944E
:10327000DB06212C312C2FC0292C382CE4E04E16F3
:10328000510491F461147104B9F560E870E080EDC7
:1032900091E00E94DB0660EC70E08BED91E00E9413
:1032A000DB06212C312C28C0F5E04F16510499F48F
:1032B0006114710409F052C060E870E08BED91E098
:1032C0000E94DB0660EC70E084EE91E00E94DB0679
:1032D000212C312C43C026E04216510469F46114BC
:1032E000710409F05DC060E870E084EE91E00E9436
:1032F000DB06212C312C54C081E04816510471F5B5
:1033000091E06916710409F06DC060E870E084EB2B
:1033100091E00E94DB06EFEFFEE924E2E150F0408D
:103320002040E1F700C000000E9490138C010E9431
:10333000D4030130110509F4ACC160E870E084EBFE
:1033400091E00E94DB0660EC70E08AEB91E00E9465
:10335000DB06212C312C612C712C44C082E04816F4
:103360005104F1F491E06916710409F05BC060E862
:1033700070E08AEB91E00E94DB060E94F50D60E8A8
:1033800070E08AEB91E00E94DB0660EC70E080EC7C
:1033900091E00E94DB06212C312C612C712C42C063
:1033A000E3E04E165104F1F4F1E06F16710409F0F8
:1033B00053C160E870E080EC91E00E94DB060E945F
:1033C000931460E870E080EC91E00E94DB0660EC12
:1033D00070E080ED91E00E94DB06212C312C612C05
:1033E000712C3AC124E042165104E1F481E06816E0
:1033F000710409F0BDCE60E870E080ED91E00E94BC
:10340000DB0660E870E080ED91E00E94DB0660EC96
:1034100070E08BED91E00E94DB06212C312C612CB9
:10342000712CA6CE95E04916510409F015C1E1E0D2
:103430006E16710409F09CCE60E870E08BED91E0AF
:103440000E94DB06FFEF28E08DE3F1502040804032
:10345000E1F700C000000E94D40360E870E08DEE48
:1034600091E00E94DB0660EC70E08EEF91E00E943C
:10347000DB06612C712C20E030E001E010E080B32D
:103480008823E9F380B38230A9F40230110594F067
:1034900080B38230E9F3015011090E94D40385E81A
:1034A00090E00E946703C8010E94A5032FAD2196FA
:1034B0003FAD219780B38430A9F480B38430E9F321
:1034C0000330110514F40F5F1F4F0E94D40385E8E9
:1034D00090E00E946703C8010E94A5032FAD2196CA
:1034E0003FAD219780B3803209F48DC180B3803421
:1034F00009F4A1C02130310511F601301105B9F4EC
:103500006114710409F088C160E870E08DEE91E00B
:103510000E94DB0660EC70E08EEF91E00E94DB061B
:103520002C962FAD2C972D963FAD2D9779C102305B
:10353000110509F084C16114710409F076C160E8D5
:1035400070E08EEF91E00E94DB0660EC70E08AE0B4
:1035500092E00E94DB062C962FAD2C972D963FAD66
:103560002D9725C06114710409F064C160E870E012
:103570008AE092E00E94DB062C962FAD2C972D96C8
:103580003FAD2D973EC091E06916710409F077CFE9
:1035900060E870E08DEE91E00E94DB060E948E04F0
:1035A0002C962FAD2C972D963FAD2D9768CF0230DE
:1035B000110539F5E1E06E16710409F060CF60E89D
:1035C00070E08EEF91E00E94DB0663968EAD9FADBA
:1035D00063970E94640763969FAF8EAF6397FFEF78
:1035E00023ED80E3F15020408040E1F700C000006F
:1035F0002C966FAC2C972D967FAC2D97262D372DC2
:103600003ECF0330110509F03ACF91E069167104FD
:1036100009F035CF60E870E08AE092E00E94DB06B6
:103620000E9474052C966FAC2C972D967FAC2D972D
:10363000262D372D24CF60E870E08BED91E00E94BD
:10364000DB0660EC70E084EE91E00E94DB06212C4A
:10365000312C612C712C8CCDE6E04E16510409F012
:1036600087CDF1E06F16710409F082CD60E870E05B
:1036700084EE91E00E94DB06212C312C612C712C10
:1036800077CD60962FAC609761963FAC6197622CC6
:10369000732C83B3803109F03DC00E94D40389E1CB
:1036A00092E00E94F0032FEF83ED90E321508040E1
:1036B0009040E1F700C000000E94D40380E890E051
:1036C0000E9467030AE010E00E9451008DE59BE62E
:1036D0000E948603EFEFF0E722E0E150F040204047
:1036E000E1F700C000000150110971F783B380ECCD
:1036F00090E00E9467030E94D4038AE292E00E9455
:10370000F0038FEF90E7E2E081509040E040E1F776
:1037100000C0000080B38034D9F080B3803801F15C
:1037200080B3803209F0E5CC0E94D40360E870E0F9
:103730008DEE91E00E94DB06FFEF2EE984E2F1506E
:1037400020408040E1F700C000000E948E04D1CCF0
:1037500091E02E969FAF2E972F961FAE2F9707C002
:10376000E1E02E96EFAF2E972F961FAE2F97209168
:103770006402309165024091660250916702609147
:1037800068027091690280916A0290916B02A1E0D7
:103790000E941C1D2FAB38AF49AF5AAF6BAF7CAF47
:1037A0008DAF9EAF20936402309365024093660212
:1037B000509367026093680270936902FDADF093C5
:1037C0006A022EAD20936B022FA98F2F9EAD2F384A
:1037D0003E4741055105610571058105910509F0D7
:1037E0000CF494CA6ECA80B3803409F44ACF692CB1
:1037F000782CFDCC292C382C41CD292C382C54CDBB
:10380000292C382C68CD80B3803409F414CF6FACE8
:1038100021967FAC219771CE2FAD21963FAD219798
:103820000130110509F4AFCEC2CE2FAD21963FADC8
:103830002197BDCE2FAD21963FAD2197E2CE03302B
:10384000110509F48FCE2FAD21963FAD2197AFCE54
:1038500097FB072E16F4009407D077FD09D00E943D
:10386000341D07FC05D03EF4909581959F4F089537
:10387000709561957F4F0895689401C0E894F92F81
:10388000F12B12F00C94701CA0E0B0E0EAE4FCE133
:103890000C94E21C092E059422F40E94CC1C1123E6
:1038A00092F4F0E80F26FFEFE094F0940095109565
:1038B000B094C094D094A194BF0ACF0ADF0AEF0A53
:1038C000FF0A0F0B1F0B0E947B1C07FC0E94CC1CE5
:1038D000CDB7DEB7ECE00C94FE1C689401C0E89410
:1038E0008F929F92CF93DF930E947B1CDF91CF91A9
:1038F0009F908F90089588249924F401E401B0E406
:103900009F93AA279A158B049C04ED05FE05CF050D
:10391000D007A10798F4AD2FDC2FCF2FFE2FE92D74
:10392000982C892E982F872F762F652F542F432F71
:10393000322F2227B85031F7BF9127C01B2EBF91DD
:10394000BB27220F331F441F551F661F771F881F79
:10395000991F881C991CEE1FFF1FCC1FDD1FAA1F7B
:10396000BB1F8A149B04EC05FD05CE05DF05A007EF
:10397000B10748F08A189B08EC09FD09CE09DF0958
:10398000A00BB10B21601A94E1F62EF49401AF0163
:10399000BE01CD01000C08956095709580959095BD
:1039A00030954095509521953F4F4F4F5F4F6F4F4A
:1039B0007F4F8F4F9F4F08952F923F924F925F926C
:1039C0006F927F928F929F92AF92BF92CF92DF922F
:1039D000EF92FF920F931F93CF93DF93CDB7DEB794
:1039E000CA1BDB0B0FB6F894DEBF0FBECDBF099428
:1039F0002A88398848885F846E847D848C849B847F
:103A0000AA84B984C884DF80EE80FD800C811B818C
:103A1000AA81B981CE0FD11D0FB6F894DEBF0FBEBB
:103A2000CDBFED0108952A0D3B1D4C1D5D1D6E1D82
:103A30007F1D801F911F08950024A7FD00942A0F69
:103A4000301D401D501D601D701D801D901D08956E
:103A50000024A7FD00942A17300540055005600595
:103A60007005800590050895AA1BBB1B51E107C096
:103A7000AA1FBB1FA617B70710F0A61BB70B881FFE
:103A8000991F5A95A9F780959095BC01CD0108958D
:103A9000E199FECF9FBB8EBBE09A99278DB3089525
:103AA000262FE199FECF9FBB8EBB2DBB0FB6F8949E
:0E3AB000E29AE19A0FBE01960895F894FFCFB6
:103ABE0068656C6C6F0044656C65746520636F6E31
:103ACE00746163743F00656E746572206E616D651E
:103ADE0000656E746572206E756D62657200636F3F
:103AEE006E746163742073617665640067616D65E1
:103AFE00207374617274730072756C657300342078
:103B0E006F72203620666F7220666F7277617264F4
:103B1E00206D6F76656D656E740032206F72203881
:103B2E0020666F72206A756D70696E6700706173C2
:103B3E0073206576657279206F62737461636C654C
:103B4E0020746F2077696E006E657874206C6576D0
:103B5E00656C0067616D65206F76657200657869CA
:103B6E00743A7072657373206261636B20636F6E5B
:103B7E00743A207072657373206D6964646C6500AD
:103B8E0073612D72652D67612D6D610076616E64B6
:103B9E00655F6D617472616D0073612D72652D6765
:103BAE00610076616E64652D6D617472616D006E7B
:103BBE00616D6F6B61722D6D616E74726100636801
:103BCE00616E67652070617373776F7264207072B7
:103BDE006573732070696E643100656E7465722052
:103BEE00746865206E65772070617373776F726489
:103BFE0000696E636F7272656374207061737377A0
:103C0E006F7264006D757369630067616D65730033
:103C1E0070617373776F7264206368616E6765009D
:103C2E0063616C63756C61746F7200636F6E746147
:103C3E00637473006D65737361676573006578698E
:103C4E007374696E6720636F6E74616374006E6562
:103C5E007720636F6E746163740064656C65746560
:103C6E0020636F6E7461637400656E746572207488
:103C7E006865206E756D626572004449414C4C4911
:103C8E004E472E2E2E00497368696B610039303510
:103C9E0037383830333434004D756D6D6100393836
:103CAE0038373232353337340039383837323234E8
:043CBE00323530006B
:00000001FF
